:020000040000FA
:020000000528D1
:040002000034003492
:0200080040288E
:06000A00831603138701B9
:10001000F0308600283085008901831603130530EF
:10002000810083160313F030950083160313F0301C
:100030009600831603171830880089018312031372
:1000400051309F008316031310309F008316031353
:100050000C17831203130B178B178B168B15643039
:100060008100831203138501860187018901A7019D
:10007000B001A901A801A001A101A401A2013F288A
:100080000B1953200B184920831203130C1B7A20E1
:100090000900201850288B11A01420140530A1004D
:1000A00006080B100800643081000B11A018F62020
:1000B000A0185C282018A620051085100511270817
:1000C0008207642869286E280514280859218700AA
:1000D00073288514290859218700732805153008CD
:1000E000592187007328A70A033027020318A701A4
:1000F00079280800831203130C1FA228831203130C
:100100001E08B3001430B3023308B400B501031065
:10011000B40DB50D3308B4070318B50A0A21360823
:1001200034023708031C000A3502031898289C285B
:10013000A019A228A0158914A011891083120313F5
:100140009F14A228831203130C130800D72024083D
:10015000C0002019B628AC2840080F3A0319C72858
:1001600040080B3A0319C228BB28D02840080B3A94
:100170000319C228D0282908B0002808A90040087F
:10018000A800D028A801A901B001B601B701201527
:1001900035210C130C171F14000000009F14D028E9
:1001A00005210800201189101F100C13D028A2016E
:1001B0000E30A300A40123088600061EF028F320B9
:1001C000861EF028F320061FF028F320861FF02853
:1001D000A20A0314A30D04302202031DDA2808002A
:1001E0002208A40708000430A4070800A10B080097
:1001F00083120313003086000608F039F03A031921
:100200000329A0100800052108002010A0100B10E1
:100210008B15080001303502031C14290630A80094
:100220000530A9000230B00064303402031C1B29E1
:10023000B400B00A14290A303402031C2229B40085
:10024000A90A1B293408A8070930280203182D2100
:1002500009302902031831210800A90A0A30A8022E
:100260000800B00A0A30A90208003008B600B70139
:1002700043212908B6070318B70A43212808B607FF
:100280000318B70A08003608B9003708B800031089
:10029000B60DB70D0310B90DB80D0310B90DB80D9B
:1002A0000310B90DB80D3908B60738080318B70A96
:1002B000B707820706345B344F34773466346D34C5
:1002C0007D347C3407347F346F34393479343F34AF
:0402D00071345E34F3
:00000001FF
